{
  "contractName": "Election",
  "abi": [
    {
      "inputs": [],
      "stateMutability": "nonpayable",
      "type": "constructor"
    },
    {
      "anonymous": false,
      "inputs": [
        {
          "indexed": false,
          "internalType": "uint256",
          "name": "id",
          "type": "uint256"
        },
        {
          "indexed": false,
          "internalType": "string",
          "name": "name",
          "type": "string"
        },
        {
          "indexed": false,
          "internalType": "uint256",
          "name": "votecount",
          "type": "uint256"
        }
      ],
      "name": "electionupdated",
      "type": "event"
    },
    {
      "inputs": [
        {
          "internalType": "uint256",
          "name": "",
          "type": "uint256"
        }
      ],
      "name": "candidates",
      "outputs": [
        {
          "internalType": "uint256",
          "name": "id",
          "type": "uint256"
        },
        {
          "internalType": "string",
          "name": "name",
          "type": "string"
        },
        {
          "internalType": "uint256",
          "name": "votecount",
          "type": "uint256"
        }
      ],
      "stateMutability": "view",
      "type": "function",
      "constant": true
    },
    {
      "inputs": [],
      "name": "candidatesCount",
      "outputs": [
        {
          "internalType": "uint256",
          "name": "",
          "type": "uint256"
        }
      ],
      "stateMutability": "view",
      "type": "function",
      "constant": true
    },
    {
      "inputs": [
        {
          "internalType": "address",
          "name": "",
          "type": "address"
        }
      ],
      "name": "votedornot",
      "outputs": [
        {
          "internalType": "bool",
          "name": "",
          "type": "bool"
        }
      ],
      "stateMutability": "view",
      "type": "function",
      "constant": true
    },
    {
      "inputs": [
        {
          "internalType": "uint256",
          "name": "_id",
          "type": "uint256"
        }
      ],
      "name": "Vote",
      "outputs": [],
      "stateMutability": "nonpayable",
      "type": "function"
    }
  ],
  "bytecode": "0x60806040523480156200001157600080fd5b50620000586040518060400160405280600d81526020017f646f6e616c64207472756d706800000000000000000000000000000000000000815250620000a460201b60201c565b6200009e6040518060400160405280600c81526020017f62617261636b206f62616d610000000000000000000000000000000000000000815250620000a460201b60201c565b620004fe565b600080815480929190620000b8906200015a565b9190505550604051806060016040528060005481526020018281526020016000815250600160008054815260200190815260200160002060008201518160000155602082015181600101908162000110919062000417565b506040820151816002015590505050565b7f4e487b7100000000000000000000000000000000000000000000000000000000600052601160045260246000fd5b6000819050919050565b6000620001678262000150565b91507fffffffffffffffffffffffffffffffffffffffffffffffffffffffffffffffff82036200019c576200019b62000121565b5b600182019050919050565b600081519050919050565b7f4e487b7100000000000000000000000000000000000000000000000000000000600052604160045260246000fd5b7f4e487b7100000000000000000000000000000000000000000000000000000000600052602260045260246000fd5b600060028204905060018216806200022957607f821691505b6020821081036200023f576200023e620001e1565b5b50919050565b60008190508160005260206000209050919050565b60006020601f8301049050919050565b600082821b905092915050565b600060088302620002a97fffffffffffffffffffffffffffffffffffffffffffffffffffffffffffffffff826200026a565b620002b586836200026a565b95508019841693508086168417925050509392505050565b6000819050919050565b6000620002f8620002f2620002ec8462000150565b620002cd565b62000150565b9050919050565b6000819050919050565b6200031483620002d7565b6200032c6200032382620002ff565b84845462000277565b825550505050565b600090565b6200034362000334565b6200035081848462000309565b505050565b5b8181101562000378576200036c60008262000339565b60018101905062000356565b5050565b601f821115620003c757620003918162000245565b6200039c846200025a565b81016020851015620003ac578190505b620003c4620003bb856200025a565b83018262000355565b50505b505050565b600082821c905092915050565b6000620003ec60001984600802620003cc565b1980831691505092915050565b6000620004078383620003d9565b9150826002028217905092915050565b6200042282620001a7565b67ffffffffffffffff8111156200043e576200043d620001b2565b5b6200044a825462000210565b620004578282856200037c565b600060209050601f8311600181146200048f57600084156200047a578287015190505b620004868582620003f9565b865550620004f6565b601f1984166200049f8662000245565b60005b82811015620004c957848901518255600182019150602085019450602081019050620004a2565b86831015620004e95784890151620004e5601f891682620003d9565b8355505b6001600288020188555050505b505050505050565b6108b3806200050e6000396000f3fe608060405234801561001057600080fd5b506004361061004c5760003560e01c80631bc57022146100515780632d35a8a2146100815780633477ee2e1461009f578063dcd6a5cd146100d1575b600080fd5b61006b600480360381019061006691906103fc565b6100ed565b6040516100789190610444565b60405180910390f35b61008961010d565b6040516100969190610478565b60405180910390f35b6100b960048036038101906100b491906104bf565b610113565b6040516100c893929190610585565b60405180910390f35b6100eb60048036038101906100e691906104bf565b6101c5565b005b60026020528060005260406000206000915054906101000a900460ff1681565b60005481565b600160205280600052604060002060009150905080600001549080600101805461013c906105f2565b80601f0160208091040260200160405190810160405280929190818152602001828054610168906105f2565b80156101b55780601f1061018a576101008083540402835291602001916101b5565b820191906000526020600020905b81548152906001019060200180831161019857829003601f168201915b5050505050908060020154905083565b600260003373ffffffffffffffffffffffffffffffffffffffff1673ffffffffffffffffffffffffffffffffffffffff16815260200190815260200160002060009054906101000a900460ff1615610252576040517f08c379a000000000000000000000000000000000000000000000000000000000815260040161024990610695565b60405180910390fd5b60006001600083815260200190815260200160002060000154036102ab576040517f08c379a00000000000000000000000000000000000000000000000000000000081526004016102a290610701565b60405180910390fd5b600180600083815260200190815260200160002060020160008282546102d19190610750565b925050819055506000600260003373ffffffffffffffffffffffffffffffffffffffff1673ffffffffffffffffffffffffffffffffffffffff16815260200190815260200160002060006101000a81548160ff0219169083151502179055507f3c841f91385f410e6f12269c9a0c0eb656e360f1e2d6f91144cfd51a10a2a3188160016000848152602001908152602001600020600101600160008581526020019081526020016000206002015460405161038e9392919061083f565b60405180910390a150565b600080fd5b600073ffffffffffffffffffffffffffffffffffffffff82169050919050565b60006103c98261039e565b9050919050565b6103d9816103be565b81146103e457600080fd5b50565b6000813590506103f6816103d0565b92915050565b60006020828403121561041257610411610399565b5b6000610420848285016103e7565b91505092915050565b60008115159050919050565b61043e81610429565b82525050565b60006020820190506104596000830184610435565b92915050565b6000819050919050565b6104728161045f565b82525050565b600060208201905061048d6000830184610469565b92915050565b61049c8161045f565b81146104a757600080fd5b50565b6000813590506104b981610493565b92915050565b6000602082840312156104d5576104d4610399565b5b60006104e3848285016104aa565b91505092915050565b600081519050919050565b600082825260208201905092915050565b60005b8381101561052657808201518184015260208101905061050b565b83811115610535576000848401525b50505050565b6000601f19601f8301169050919050565b6000610557826104ec565b61056181856104f7565b9350610571818560208601610508565b61057a8161053b565b840191505092915050565b600060608201905061059a6000830186610469565b81810360208301526105ac818561054c565b90506105bb6040830184610469565b949350505050565b7f4e487b7100000000000000000000000000000000000000000000000000000000600052602260045260246000fd5b6000600282049050600182168061060a57607f821691505b60208210810361061d5761061c6105c3565b5b50919050565b7f796f75206861766520766f74656420666f72207468652070617274696369706160008201527f6e74000000000000000000000000000000000000000000000000000000000000602082015250565b600061067f6022836104f7565b915061068a82610623565b604082019050919050565b600060208201905081810360008301526106ae81610672565b9050919050565b7f74686520696420646f6573656e74206578697374000000000000000000000000600082015250565b60006106eb6014836104f7565b91506106f6826106b5565b602082019050919050565b6000602082019050818103600083015261071a816106de565b9050919050565b7f4e487b7100000000000000000000000000000000000000000000000000000000600052601160045260246000fd5b600061075b8261045f565b91506107668361045f565b9250827fffffffffffffffffffffffffffffffffffffffffffffffffffffffffffffffff0382111561079b5761079a610721565b5b828201905092915050565b60008190508160005260206000209050919050565b600081546107c8816105f2565b6107d281866104f7565b945060018216600081146107ed576001811461080357610836565b60ff198316865281151560200286019350610836565b61080c856107a6565b60005b8381101561082e5781548189015260018201915060208101905061080f565b808801955050505b50505092915050565b60006060820190506108546000830186610469565b818103602083015261086681856107bb565b90506108756040830184610469565b94935050505056fea26469706673582212202fe4964e52018eb45a1ffc68d7013d373dc9d73776d7eb912e90b0712abb705964736f6c634300080f0033",
  "immutableReferences": {},
  "source": "// SPDX-License-Identifier: MIT\npragma solidity >=0.4.22 <0.9.0;\n\ncontract Election{\n    \n    struct Candidate{\n        uint id;\n        string name;\n        uint votecount;\n    }\n\n    //candidate count\n    uint public candidatesCount;\n\n    mapping(uint => Candidate) public candidates;\n    mapping(address => bool) public votedornot;\n\n    event electionupdated(\n        uint id,\n        string name,\n        uint votecount\n    );\n\n    constructor(){\n        addCandidate(\"donald trumph\");\n        addCandidate(\"barack obama\");\n    }\n\n    function addCandidate(string memory name) private{\n        candidatesCount++;\n        candidates[candidatesCount] = Candidate(candidatesCount,name,0);\n    }\n\n    function Vote(uint _id) public{\n        //the person has not vote again\n        require(!votedornot[msg.sender], 'you have voted for the participant');\n        //the id that the person has input is available\n        require(candidates[_id].id !=0 , 'the id doesent exist');\n        //increase the vote count of the person whom the candidates[_id].votecount += 1\n        candidates[_id].votecount +=1;\n        //bool true\n        votedornot[msg.sender] = false;\n\n        emit electionupdated(_id,candidates[_id].name,candidates[_id].votecount);\n    }\n\n\n}",
  "sourcePath": "D:\\blockchain\\with react\\voting App\\solidity-react-v-app\\contracts\\Election.sol",
  "compiler": {
    "name": "solc",
    "version": "0.8.15+commit.e14f2714.Emscripten.clang"
  },
  "schemaVersion": "3.4.8",
  "updatedAt": "2022-07-21T15:40:23.267Z",
  "networkType": "ethereum",
  "devdoc": {
    "kind": "dev",
    "methods": {},
    "version": 1
  },
  "userdoc": {
    "kind": "user",
    "methods": {},
    "version": 1
  }
}